S01400006C696E657472616365725F312E7372656357
S113000045C0000061C000006DC000005CC000007D
S11300105AC0000058C0000056C0000054C0000080
S113002052C0000050C000004EC000004CC0000090
S11300304AC0000048C0000046C0000044C00000A0
S1130040D6C0000040C000003EC000003CC000001C
S11300503AC0000038C0000036C0000034C00000C0
S113006032C0000030C000002EC000002CC00000D0
S11300702AC0000028C0000026C0000024C00000E0
S113008022C0000020C000001EC0000011241FBEBA
S1130090CFEFD0E1DEBFCDBF11E0A0E0B1E0E6EAF2
S11300A0F8E000E00BBF02C007900D92A232B10746
S11300B0D9F721E0A2E2B1E001C01D92AA35B2074E
S11300C0E1F73CD0EEC39CCF1F920F920FB60F9274
S11300D0112410922101109220010F900FBE0F9055
S11300E01F9018951F920F920FB60F9211248F93A1
S11300F09F9381E090E090932101809320019F9150
S11301008F910F900FBE0F901F901895806487B940
S113011086B1806486B9349BFECF84B195B10895CD
S113012010929B0088E180939A0086E080939D0062
S11301301092980087E6809399000895CFEFCABB88
S1130140CBBB1092610088E081BB80E487B987E86B
S113015086B9E6DFC7BB8FE082B98AE083B992EA49
S11301609FBD99E19EBD2FE133E037BD26BD1BBC89
S11301701ABC19BC18BC97E093BF91E097BF93E6F3
S113018092BF80936A0083E089BF7894FFCFCF92B7
S1130190DF92EF92FF920F931F93CF93DF93EB01C4
S11301A08A01841B950BBC01990F880B990B8AD289
S11301B06B017C01BE01601B710B072E000C880BC8
S11301C0990B80D29B01AC01C701B601E0D120E0BC
S11301D030E048EC52E402D342D2CB01DF91CF911C
S11301E01F910F91FF90EF90DF90CF9008951F9291
S11301F00F920FB60F9211240BB60F920F931F9309
S11302002F933F934F935F936F937F938F939F931A
S1130210AF93BF93CF93DF93EF93FF938091480104
S1130220909149010196909349018093480183E696
S113023082BFC0E0D0E00AC08C2F68DFFE01EE0F61
S1130240FF1FE85CFE4F918380832196C830D1055F
S11302509CF38091200190912101892B09F14AC0DE
S1130260C901880F991FFC01E85CFE4F4081518150
S1130270FC01E85DFE4F80819181841795076CF441
S1130280C901880F991FFC01E85CFE4F4081518130
S1130290FC01E85DFE4F518340832F5F3F4F02C056
S11302A020E030E028303105DCF220E030E01FC0EF
S11302B0C901880F991FFC01E85CFE4F4081518100
S11302C0FC01E05FFE4F80819181481759076CF46F
S11302D0C901880F991FFC01E85CFE4F40815181E0
S11302E0FC01E05FFE4F518340832F5F3F4F283076
S11302F03105F4F28091200190912101019709F0D8
S11303002BC1109227011092260100E010E017C0C3
S1130310C801880F991FFC01E05FFE4F40815181A5
S1130320FC01E85DFE4F60817181EC01C85CDE4F29
S1130330888199812CDF998388830F5F1F4F083050
S1130340110534F38091220190912301019701F169
S113035080E090E060C0FC01EE0FFF1FE65BFE4F03
S1130360208131812130310541F4FC01EE0FFF1F62
S1130370E65BFE4F1182108209C0FC01EE0FFF1FE5
S1130380E65BFE4F21E030E031832083019602C01A
S113039080E090E088309105F4F27FC0FC01EE0F1C
S11303A0FF1FE85CFE4F208131812733310504F5BE
S11303B03BB361E070E0AB01082E02C0440F551F4F
S11303C00A94E2F7242F209523232BBBFC01EE0F84
S11303D0FF1FE65BFE4F71836083209126013091FD
S11303E027012F5F3F4F309327012093260112C02E
S11303F04BB321E030E0082E02C0220F331F0A94D1
S1130400E2F7242B2BBBFC01EE0FFF1FE65BFE4F34
S1130410118210820196883091050CF4BFCF80912F
S11304204A0190914B01019741F5809158019091B7
S11304305901019711F580914E0190914F01892B3B
S113044091F08091500190915101892B61F080913C
S1130450520190915301892B31F080915401909174
S11304605501892B51F480914801909149010196DD
S1130470909349018093480104C01092490110925D
S113048048018091480190914901C29734F081E07C
S113049090E0909323018093220120E030E040E03B
S11304A050E024C0C901880F991FFC01E050FF4FA0
S11304B00190F081E02DDC01A65BBE4F6D917C9133
S11304C0E69FC001E79F900DF69F900D1124BC019B
S11304D0660F771F880F991F880F991F880F991F20
S11304E0860F971F480F591F2F5F3F4F2830310544
S11304F0CCF28091260190912701181619068CF4EC
S11305008AE083B950932501409324018EE492E05C
S1130510841B950B9BBD8ABD425B5D4F59BD48BD95
S11305201BC0809124019091250199235CF486E0FD
S113053083B984EF91E09BBD8ABD88E592E099BDC3
S113054088BD0AC089E083B988E592E09BBD8ABD75
S113055084EF91E099BD88BD109249011092480141
S1130560FF91EF91DF91CF91BF91AF919F918F91C7
S11305707F916F915F914F913F912F911F910F91B7
S11305800F900BBE0F900FBE0F901F9018950CD0BC
S1130590EBC0E3D040F0DAD030F021F45F3F19F043
S11305A0CCC0511115C1CFC0F0D098F39923C9F331
S11305B05523B1F3951B550BBB27AA276217730765
S11305C0840738F09F5F5F4F220F331F441FAA1F19
S11305D0A9F333D00E2E3AF0E0E830D091505040D9
S11305E0E695001CCAF729D0FE2F27D0660F771F87
S11305F0881FBB1F261737074807AB07B0E809F069
S1130600BB0B802DBF01FF2793585F4F2AF09E3FFD
S1130610510568F092C0DCC05F3FECF3983EDCF318
S1130620869577956795B795F7959F5FC9F7880F76
S1130630911D9695879597F90895E1E0660F771FC8
S1130640881FBB1F621773078407BA0720F0621B59
S1130650730B840BBA0BEE1F88F7E095089504D052
S11306606894B111B5C0089598D088F09F5790F060
S1130670B92F9927B751A0F0D1F0660F771F881FC3
S1130680991F1AF0BA95C9F712C0B13081F09FD002
S1130690B1E008959CC0672F782F8827B85F39F0A0
S11306A0B93FCCF3869577956795B395D9F73EF422
S11306B090958095709561957F4F8F4F9F4F0895CA
S11306C0E89409C097FB3EF49095809570956195E8
S11306D07F4F8F4F9F4F9923A9F0F92F96E9BB279E
S11306E09395F695879577956795B795F111F8CF1A
S11306F0FAF4BB0F11F460FF1BC06F5F7F4F8F4F85
S11307009F4F16C0882311F096E911C0772321F07A
S11307109EE8872F762F05C0662371F096E8862F12
S113072070E060E02AF09A95660F771F881FDAF769
S1130730880F9695879597F9089597F99F6780E8AC
S113074070E060E008959FEF80EC089500240A941F
S11307501616170618060906089500240A94121698
S11307601306140605060895092E0394000C11F4CB
S1130770882352F0BB0F40F4BF2B11F460FF04C078
S11307806F5F7F4F8F4F9F4F089557FD9058440FD1
S1130790551F59F05F3F71F04795880F97FB991FDC
S11307A061F09F3F79F08795089512161306140699
S11307B0551FF2CF4695F1DF08C016161706180626
S11307C0991FF1CF86957105610508940895E89401
S11307D0BB2766277727CB0197F908950BD0C4CFA1
S11307E0B5DF28F0BADF18F0952309F0A6CFABCF18
S11307F01124EECFCADFA0F3959FD1F3950F50E0FB
S1130800551F629FF001729FBB27F00DB11D639FBE
S1130810AA27F00DB11DAA1F649F6627B00DA11D64
S1130820661F829F2227B00DA11D621F739FB00D0A
S1130830A11D621F839FA00D611D221F749F33277A
S1130840A00D611D231F849F600D211D822F762F13
S11308506A2F11249F5750408AF0E1F088234AF010
S1130860EE0FFF1FBB1F661F771F881F915050405C
S1130870A9F79E3F510570F060CFAACF5F3FECF31C
S1130880983EDCF3869577956795B795F795E79548
S11308909F5FC1F7FE2B880F911D9695879597F959
S10908A00895F894FFCF57
S11308A6F8FFFCFFFEFFFFFF010002000400080042
S11308B6FF0300000000000000000000000000002C
S10508C602002A
S9030000FC
